{
  "_format": "hh-sol-artifact-1",
  "contractName": "XRPToFlareConverter",
  "sourceName": "contracts/XRPToFlareConverter.sol",
  "abi": [
    {
      "anonymous": false,
      "inputs": [
        {
          "indexed": true,
          "internalType": "address",
          "name": "sender",
          "type": "address"
        },
        {
          "indexed": false,
          "internalType": "uint256",
          "name": "totalXRP",
          "type": "uint256"
        },
        {
          "indexed": false,
          "internalType": "uint256",
          "name": "totalUSD",
          "type": "uint256"
        },
        {
          "indexed": false,
          "internalType": "uint256",
          "name": "totalFlare",
          "type": "uint256"
        },
        {
          "indexed": false,
          "internalType": "uint256",
          "name": "transactionCount",
          "type": "uint256"
        }
      ],
      "name": "BatchConversion",
      "type": "event"
    },
    {
      "anonymous": false,
      "inputs": [
        {
          "indexed": true,
          "internalType": "address",
          "name": "from",
          "type": "address"
        },
        {
          "indexed": false,
          "internalType": "uint256",
          "name": "xrpAmount",
          "type": "uint256"
        },
        {
          "indexed": false,
          "internalType": "string",
          "name": "xrpTxHash",
          "type": "string"
        },
        {
          "indexed": false,
          "internalType": "uint256",
          "name": "blockNumber",
          "type": "uint256"
        }
      ],
      "name": "XRPReceived",
      "type": "event"
    },
    {
      "anonymous": false,
      "inputs": [
        {
          "indexed": true,
          "internalType": "address",
          "name": "sender",
          "type": "address"
        },
        {
          "indexed": false,
          "internalType": "uint256",
          "name": "xrpAmount",
          "type": "uint256"
        },
        {
          "indexed": false,
          "internalType": "uint256",
          "name": "usdValue",
          "type": "uint256"
        },
        {
          "indexed": false,
          "internalType": "uint256",
          "name": "flareEquivalent",
          "type": "uint256"
        },
        {
          "indexed": false,
          "internalType": "uint256",
          "name": "xrpPriceUSD",
          "type": "uint256"
        },
        {
          "indexed": false,
          "internalType": "uint256",
          "name": "flarePriceUSD",
          "type": "uint256"
        },
        {
          "indexed": false,
          "internalType": "uint256",
          "name": "timestamp",
          "type": "uint256"
        }
      ],
      "name": "XRPToFlareConversion",
      "type": "event"
    },
    {
      "inputs": [
        {
          "internalType": "uint256[]",
          "name": "xrpAmounts",
          "type": "uint256[]"
        },
        {
          "internalType": "string[]",
          "name": "xrpTxHashes",
          "type": "string[]"
        }
      ],
      "name": "batchConvertXRPToFlare",
      "outputs": [
        {
          "internalType": "uint256",
          "name": "totalUsdValue",
          "type": "uint256"
        },
        {
          "internalType": "uint256",
          "name": "totalFlareEquivalent",
          "type": "uint256"
        }
      ],
      "stateMutability": "nonpayable",
      "type": "function"
    },
    {
      "inputs": [],
      "name": "conversionCount",
      "outputs": [
        {
          "internalType": "uint256",
          "name": "",
          "type": "uint256"
        }
      ],
      "stateMutability": "view",
      "type": "function"
    },
    {
      "inputs": [
        {
          "internalType": "uint256",
          "name": "xrpAmount",
          "type": "uint256"
        },
        {
          "internalType": "string",
          "name": "xrpTxHash",
          "type": "string"
        }
      ],
      "name": "convertXRPToFlare",
      "outputs": [
        {
          "internalType": "uint256",
          "name": "usdValue",
          "type": "uint256"
        },
        {
          "internalType": "uint256",
          "name": "flareEquivalent",
          "type": "uint256"
        }
      ],
      "stateMutability": "nonpayable",
      "type": "function"
    },
    {
      "inputs": [
        {
          "internalType": "uint256",
          "name": "drops",
          "type": "uint256"
        }
      ],
      "name": "dropsToXRP",
      "outputs": [
        {
          "internalType": "uint256",
          "name": "tokens",
          "type": "uint256"
        }
      ],
      "stateMutability": "pure",
      "type": "function"
    },
    {
      "inputs": [],
      "name": "getConversionStats",
      "outputs": [
        {
          "internalType": "uint256",
          "name": "_totalXRP",
          "type": "uint256"
        },
        {
          "internalType": "uint256",
          "name": "_totalUSD",
          "type": "uint256"
        },
        {
          "internalType": "uint256",
          "name": "_totalFlare",
          "type": "uint256"
        },
        {
          "internalType": "uint256",
          "name": "_conversionCount",
          "type": "uint256"
        }
      ],
      "stateMutability": "view",
      "type": "function"
    },
    {
      "inputs": [],
      "name": "getFlarePriceUSD",
      "outputs": [
        {
          "internalType": "uint256",
          "name": "",
          "type": "uint256"
        }
      ],
      "stateMutability": "pure",
      "type": "function"
    },
    {
      "inputs": [
        {
          "internalType": "address",
          "name": "user",
          "type": "address"
        }
      ],
      "name": "getUserConversions",
      "outputs": [
        {
          "internalType": "uint256",
          "name": "xrpContributed",
          "type": "uint256"
        },
        {
          "internalType": "uint256",
          "name": "usdValue",
          "type": "uint256"
        },
        {
          "internalType": "uint256",
          "name": "flareEquivalent",
          "type": "uint256"
        }
      ],
      "stateMutability": "view",
      "type": "function"
    },
    {
      "inputs": [],
      "name": "getXRPPriceUSD",
      "outputs": [
        {
          "internalType": "uint256",
          "name": "",
          "type": "uint256"
        }
      ],
      "stateMutability": "pure",
      "type": "function"
    },
    {
      "inputs": [],
      "name": "getXRPToFlareRate",
      "outputs": [
        {
          "internalType": "uint256",
          "name": "rate",
          "type": "uint256"
        }
      ],
      "stateMutability": "pure",
      "type": "function"
    },
    {
      "inputs": [
        {
          "internalType": "string",
          "name": "xrpTxHash",
          "type": "string"
        }
      ],
      "name": "isXRPLTransactionProcessed",
      "outputs": [
        {
          "internalType": "bool",
          "name": "processed",
          "type": "bool"
        }
      ],
      "stateMutability": "view",
      "type": "function"
    },
    {
      "inputs": [
        {
          "internalType": "uint256",
          "name": "xrpAmount",
          "type": "uint256"
        }
      ],
      "name": "previewConversion",
      "outputs": [
        {
          "internalType": "uint256",
          "name": "usdValue",
          "type": "uint256"
        },
        {
          "internalType": "uint256",
          "name": "flareEquivalent",
          "type": "uint256"
        }
      ],
      "stateMutability": "pure",
      "type": "function"
    },
    {
      "inputs": [
        {
          "internalType": "string",
          "name": "",
          "type": "string"
        }
      ],
      "name": "processedXRPLTxHashes",
      "outputs": [
        {
          "internalType": "bool",
          "name": "",
          "type": "bool"
        }
      ],
      "stateMutability": "view",
      "type": "function"
    },
    {
      "inputs": [],
      "name": "totalFlareGenerated",
      "outputs": [
        {
          "internalType": "uint256",
          "name": "",
          "type": "uint256"
        }
      ],
      "stateMutability": "view",
      "type": "function"
    },
    {
      "inputs": [],
      "name": "totalUSDConverted",
      "outputs": [
        {
          "internalType": "uint256",
          "name": "",
          "type": "uint256"
        }
      ],
      "stateMutability": "view",
      "type": "function"
    },
    {
      "inputs": [],
      "name": "totalXRPProcessed",
      "outputs": [
        {
          "internalType": "uint256",
          "name": "",
          "type": "uint256"
        }
      ],
      "stateMutability": "view",
      "type": "function"
    },
    {
      "inputs": [
        {
          "internalType": "address",
          "name": "",
          "type": "address"
        }
      ],
      "name": "userFlareEquivalent",
      "outputs": [
        {
          "internalType": "uint256",
          "name": "",
          "type": "uint256"
        }
      ],
      "stateMutability": "view",
      "type": "function"
    },
    {
      "inputs": [
        {
          "internalType": "address",
          "name": "",
          "type": "address"
        }
      ],
      "name": "userUSDValue",
      "outputs": [
        {
          "internalType": "uint256",
          "name": "",
          "type": "uint256"
        }
      ],
      "stateMutability": "view",
      "type": "function"
    },
    {
      "inputs": [
        {
          "internalType": "address",
          "name": "",
          "type": "address"
        }
      ],
      "name": "userXRPContributions",
      "outputs": [
        {
          "internalType": "uint256",
          "name": "",
          "type": "uint256"
        }
      ],
      "stateMutability": "view",
      "type": "function"
    },
    {
      "inputs": [
        {
          "internalType": "uint256",
          "name": "tokens",
          "type": "uint256"
        }
      ],
      "name": "xrpToDrops",
      "outputs": [
        {
          "internalType": "uint256",
          "name": "drops",
          "type": "uint256"
        }
      ],
      "stateMutability": "pure",
      "type": "function"
    }
  ],
  "bytecode": "0x60808060405234601557610d20908161001b8239f35b600080fdfe6080604052600436101561001257600080fd5b60003560e01c806310cc3c61146108f657806323c4253b146108bc578063240da09a1461087e5780633d6b82511461084b57806349bdac1f146108295780635ee9e176146107eb5780636480c942146107cd57806370421ab91461074a57806372bc7b311461072c578063a02034721461070e578063af470c15146100ed578063b1cbf88b146106d0578063bcbf4af6146106b1578063c4144eee1461068e578063d097b73f14610670578063d677665014610611578063e6f70daa14610172578063eb00b002146101545763fcd47b84146100ed57600080fd5b3461014f57602036600319011261014f5760043567ffffffffffffffff811161014f5760ff610139602061012681943690600401610b2f565b8160405193828580945193849201610b9a565b8101600481520301902054166040519015158152f35b600080fd5b3461014f57600036600319011261014f576020600054604051908152f35b3461014f57604036600319011261014f5767ffffffffffffffff60043581811161014f573660238201121561014f578060040135906101b86101b383610b82565b610af3565b916024602084838152019160051b8301019136831161014f57602401905b828210610601575050506024359180831161014f573660238401121561014f5782600401356102076101b382610b82565b936024602086848152019260051b8201019136831161014f5760248201905b8382106105d95786866000916000825182510361059b5782511561055657600a83511161050757926000906000905b84518210156104a7576102688286610cc0565b51916102748186610cc0565b5192610281811515610bbd565b6102c560206040516102b460ff8851928481818c01956102a2818389610b9a565b81016004815203019020541615610c13565b604051809381928951928391610b9a565b81016004815203019020600160ff19825416179055620f42408104906303b20b8091828102928184041490151715610491576305f5e1009182810480840290801590820485141715610491576244aa20900491670de0b6b3a764000092838102938185041490151715610491576104857f6930bfb5db1c1ae8dd4840402707b4c1f0ebec3c18c3b745edf20032b88a081b9361037d8361037761036d60019b8a890490610c6a565b9f89850490610c6a565b9b610c6a565b9861038a84600054610c6a565b60005561039a8786048a54610c6a565b895560026103ab8884048254610c6a565b905560036103b98154610c77565b905533600052600560205260406000206103d4858254610c6a565b905533600052600660205260406000206103f18887048254610c6a565b9055336000526007602052604060002061040e8884048254610c6a565b90557fe4aa91373c64d133d1c8f72d219b0fbdb3b940aefa67b7877d727f28c522007960405180610443339443908984610c86565b0390a2604051938493339780429404920490859094939260a09260c08301968352602083015260408201526303b20b8060608201526244aa2060808201520152565b0390a201909194610255565b634e487b7160e01b600052601160045260246000fd5b60409086847f9179390c873885b680a5a53006c0291e92a74ec8e178dacdf28d9b969f9255766104f88951865191829186883397859094939260609260808301968352602083015260408201520152565b0390a282519182526020820152f35b60405162461bcd60e51b815260206004820152602160248201527f4d6178696d756d203130207472616e73616374696f6e732070657220626174636044820152600d60fb1b6064820152608490fd5b60405162461bcd60e51b815260206004820152601860248201527f4e6f207472616e73616374696f6e732070726f766964656400000000000000006044820152606490fd5b60405162461bcd60e51b8152602060048201526016602482015275082e4e4c2f2e640d8cadccee8d040dad2e6dac2e8c6d60531b6044820152606490fd5b813585811161014f576020916105f6839260243691880101610b2f565b815201910190610226565b81358152602091820191016101d6565b3461014f57602036600319011261014f576004356001600160a01b0381169081900361014f5760005260056020526060604060002054600660205260406000205460076020526040600020549060405192835260208301526040820152f35b3461014f57600036600319011261014f576020600254604051908152f35b3461014f57600036600319011261014f57602060405167bf347fe41eb71c718152f35b3461014f57600036600319011261014f5760206040516303b20b808152f35b3461014f57602036600319011261014f576004356001600160a01b0381169081900361014f5760005260076020526020604060002054604051908152f35b3461014f57600036600319011261014f576020600354604051908152f35b3461014f57600036600319011261014f5760206040516244aa208152f35b3461014f57602036600319011261014f57620f424060043561076d811515610bbd565b046303b20b8090818102918183041490151715610491576305f5e100809104818102818104831482151715610491576244aa20900491670de0b6b3a764000092838102938185041490151715610491576040928351928352046020820152f35b3461014f57600036600319011261014f576020600154604051908152f35b3461014f57602036600319011261014f576004356001600160a01b0381169081900361014f5760005260066020526020604060002054604051908152f35b3461014f57602036600319011261014f576020604051620f4240600435048152f35b3461014f57602036600319011261014f57620f424060043581810291811591830414171561049157602090604051908152f35b3461014f57602036600319011261014f576004356001600160a01b0381169081900361014f5760005260056020526020604060002054604051908152f35b3461014f57600036600319011261014f57600054600154600254600354604080519485526020850193909352918301526060820152608090f35b3461014f57604036600319011261014f5760243560043567ffffffffffffffff821161014f5761092c60ff923690600401610b2f565b610937821515610bbd565b610969604051825161095860209683888095818901956102a2818389610b9a565b604051809381928651928391610b9a565b81016004815203019020600160ff19825416179055620f42408204926303b20b8093848102948186041490151715610491576305f5e10080940492848402848104861485151715610491576244aa20900494670de0b6b3a7640000958681029681880414901517156104915760409504926109e682600054610c6a565b6000556109f585600154610c6a565b600155610a0484600254610c6a565b600255610a12600354610c77565b600355336000526005835285600020610a2c838254610c6a565b9055336000526006835285600020610a45868254610c6a565b9055336000526007835285600020610a5e858254610c6a565b90557fe4aa91373c64d133d1c8f72d219b0fbdb3b940aefa67b7877d727f28c5220079865180610a92339443908784610c86565b0390a2845190815260208101849052604081018390526303b20b8060608201526244aa2060808201524260a082015233907f6930bfb5db1c1ae8dd4840402707b4c1f0ebec3c18c3b745edf20032b88a081b9060c090a28351928352820152f35b6040519190601f01601f1916820167ffffffffffffffff811183821017610b1957604052565b634e487b7160e01b600052604160045260246000fd5b81601f8201121561014f5780359067ffffffffffffffff8211610b1957610b5f601f8301601f1916602001610af3565b928284526020838301011161014f57816000926020809301838601378301015290565b67ffffffffffffffff8111610b195760051b60200190565b60005b838110610bad5750506000910152565b8181015183820152602001610b9d565b15610bc457565b60405162461bcd60e51b815260206004820152602160248201527f58525020616d6f756e74206d7573742062652067726561746572207468616e206044820152600360fc1b6064820152608490fd5b15610c1a57565b60405162461bcd60e51b815260206004820152602260248201527f5852504c207472616e73616374696f6e20616c72656164792070726f63657373604482015261195960f21b6064820152608490fd5b9190820180921161049157565b60001981146104915760010190565b939291608090604092865260606020870152610cb1815180928160608a01526020858a019101610b9a565b601f8019910116850101930152565b8051821015610cd45760209160051b010190565b634e487b7160e01b600052603260045260246000fdfea26469706673582212204bef4ff79e4fe4bff807438b6397181c419acce10ee5a9e93b1212c2d6f46f7e64736f6c63430008190033",
  "linkReferences": {},
  "deployedLinkReferences": {}
}