{
  "_format": "hh-sol-artifact-1",
  "contractName": "FTG_CrossChainTravelVault",
  "sourceName": "contracts/FTG_CrossChainTravelVault.sol",
  "abi": [
    {
      "inputs": [
        {
          "internalType": "address",
          "name": "_ftsoConsumer",
          "type": "address"
        },
        {
          "internalType": "address",
          "name": "_fdcVerification",
          "type": "address"
        },
        {
          "internalType": "address",
          "name": "_xrplVerification",
          "type": "address"
        }
      ],
      "stateMutability": "nonpayable",
      "type": "constructor"
    },
    {
      "inputs": [],
      "name": "ReentrancyGuardReentrantCall",
      "type": "error"
    },
    {
      "anonymous": false,
      "inputs": [
        {
          "indexed": true,
          "internalType": "uint256",
          "name": "vaultId",
          "type": "uint256"
        },
        {
          "indexed": false,
          "internalType": "address",
          "name": "recipient",
          "type": "address"
        },
        {
          "indexed": false,
          "internalType": "uint256",
          "name": "amount",
          "type": "uint256"
        },
        {
          "indexed": false,
          "internalType": "string",
          "name": "xrplAddress",
          "type": "string"
        }
      ],
      "name": "CrossChainTransfer",
      "type": "event"
    },
    {
      "anonymous": false,
      "inputs": [
        {
          "indexed": true,
          "internalType": "uint256",
          "name": "vaultId",
          "type": "uint256"
        },
        {
          "indexed": false,
          "internalType": "uint256",
          "name": "fxrpAmount",
          "type": "uint256"
        },
        {
          "indexed": false,
          "internalType": "uint256",
          "name": "lots",
          "type": "uint256"
        }
      ],
      "name": "FAssetsMinted",
      "type": "event"
    },
    {
      "anonymous": false,
      "inputs": [
        {
          "indexed": true,
          "internalType": "uint256",
          "name": "vaultId",
          "type": "uint256"
        },
        {
          "indexed": false,
          "internalType": "uint256",
          "name": "fxrpAmount",
          "type": "uint256"
        },
        {
          "indexed": false,
          "internalType": "string",
          "name": "xrplDestination",
          "type": "string"
        }
      ],
      "name": "FAssetsRedeemed",
      "type": "event"
    },
    {
      "anonymous": false,
      "inputs": [
        {
          "indexed": true,
          "internalType": "uint256",
          "name": "vaultId",
          "type": "uint256"
        },
        {
          "indexed": false,
          "internalType": "address",
          "name": "contributor",
          "type": "address"
        },
        {
          "indexed": false,
          "internalType": "uint256",
          "name": "amount",
          "type": "uint256"
        }
      ],
      "name": "FlareContribution",
      "type": "event"
    },
    {
      "anonymous": false,
      "inputs": [
        {
          "indexed": true,
          "internalType": "uint256",
          "name": "vaultId",
          "type": "uint256"
        },
        {
          "indexed": false,
          "internalType": "uint256",
          "name": "flareAmount",
          "type": "uint256"
        },
        {
          "indexed": false,
          "internalType": "uint256",
          "name": "fxrpAmount",
          "type": "uint256"
        },
        {
          "indexed": false,
          "internalType": "string",
          "name": "reason",
          "type": "string"
        }
      ],
      "name": "FundsReleased",
      "type": "event"
    },
    {
      "anonymous": false,
      "inputs": [
        {
          "indexed": true,
          "internalType": "uint256",
          "name": "vaultId",
          "type": "uint256"
        },
        {
          "indexed": false,
          "internalType": "address",
          "name": "member",
          "type": "address"
        },
        {
          "indexed": false,
          "internalType": "address",
          "name": "xrplAddress",
          "type": "address"
        }
      ],
      "name": "MemberJoined",
      "type": "event"
    },
    {
      "anonymous": false,
      "inputs": [
        {
          "indexed": true,
          "internalType": "uint256",
          "name": "vaultId",
          "type": "uint256"
        },
        {
          "indexed": false,
          "internalType": "bytes21",
          "name": "feedId",
          "type": "bytes21"
        },
        {
          "indexed": false,
          "internalType": "uint256",
          "name": "triggerPrice",
          "type": "uint256"
        },
        {
          "indexed": false,
          "internalType": "bool",
          "name": "isLowerBound",
          "type": "bool"
        }
      ],
      "name": "PriceTriggerSet",
      "type": "event"
    },
    {
      "anonymous": false,
      "inputs": [
        {
          "indexed": true,
          "internalType": "uint256",
          "name": "vaultId",
          "type": "uint256"
        },
        {
          "indexed": false,
          "internalType": "address",
          "name": "smartAccount",
          "type": "address"
        },
        {
          "indexed": false,
          "internalType": "string",
          "name": "action",
          "type": "string"
        }
      ],
      "name": "SmartAccountAction",
      "type": "event"
    },
    {
      "anonymous": false,
      "inputs": [
        {
          "indexed": true,
          "internalType": "uint256",
          "name": "vaultId",
          "type": "uint256"
        },
        {
          "indexed": false,
          "internalType": "address",
          "name": "creator",
          "type": "address"
        },
        {
          "indexed": false,
          "internalType": "string",
          "name": "destination",
          "type": "string"
        },
        {
          "indexed": false,
          "internalType": "uint256",
          "name": "targetAmount",
          "type": "uint256"
        }
      ],
      "name": "VaultCreated",
      "type": "event"
    },
    {
      "anonymous": false,
      "inputs": [
        {
          "indexed": true,
          "internalType": "uint256",
          "name": "vaultId",
          "type": "uint256"
        },
        {
          "indexed": false,
          "internalType": "address",
          "name": "contributor",
          "type": "address"
        },
        {
          "indexed": false,
          "internalType": "uint256",
          "name": "xrpAmount",
          "type": "uint256"
        },
        {
          "indexed": false,
          "internalType": "bytes32",
          "name": "txHash",
          "type": "bytes32"
        }
      ],
      "name": "XRPLContribution",
      "type": "event"
    },
    {
      "anonymous": false,
      "inputs": [
        {
          "indexed": true,
          "internalType": "address",
          "name": "from",
          "type": "address"
        },
        {
          "indexed": false,
          "internalType": "uint256",
          "name": "xrpAmount",
          "type": "uint256"
        },
        {
          "indexed": false,
          "internalType": "string",
          "name": "xrpTxHash",
          "type": "string"
        },
        {
          "indexed": false,
          "internalType": "uint256",
          "name": "blockNumber",
          "type": "uint256"
        }
      ],
      "name": "XRPReceived",
      "type": "event"
    },
    {
      "anonymous": false,
      "inputs": [
        {
          "indexed": true,
          "internalType": "address",
          "name": "sender",
          "type": "address"
        },
        {
          "indexed": false,
          "internalType": "uint256",
          "name": "xrpAmount",
          "type": "uint256"
        },
        {
          "indexed": false,
          "internalType": "uint256",
          "name": "usdValue",
          "type": "uint256"
        },
        {
          "indexed": false,
          "internalType": "uint256",
          "name": "flareEquivalent",
          "type": "uint256"
        },
        {
          "indexed": false,
          "internalType": "uint256",
          "name": "xrpPriceUSD",
          "type": "uint256"
        },
        {
          "indexed": false,
          "internalType": "uint256",
          "name": "flarePriceUSD",
          "type": "uint256"
        },
        {
          "indexed": false,
          "internalType": "uint256",
          "name": "timestamp",
          "type": "uint256"
        }
      ],
      "name": "XRPToFlareConversion",
      "type": "event"
    },
    {
      "inputs": [],
      "name": "ETH_USD_FEED",
      "outputs": [
        {
          "internalType": "bytes21",
          "name": "",
          "type": "bytes21"
        }
      ],
      "stateMutability": "view",
      "type": "function"
    },
    {
      "inputs": [],
      "name": "FLR_USD_FEED",
      "outputs": [
        {
          "internalType": "bytes21",
          "name": "",
          "type": "bytes21"
        }
      ],
      "stateMutability": "view",
      "type": "function"
    },
    {
      "inputs": [],
      "name": "XRP_USD_FEED",
      "outputs": [
        {
          "internalType": "bytes21",
          "name": "",
          "type": "bytes21"
        }
      ],
      "stateMutability": "view",
      "type": "function"
    },
    {
      "inputs": [
        {
          "internalType": "uint256[]",
          "name": "xrpAmounts",
          "type": "uint256[]"
        },
        {
          "internalType": "string[]",
          "name": "xrpTxHashes",
          "type": "string[]"
        }
      ],
      "name": "batchConvertXRPToFlare",
      "outputs": [
        {
          "internalType": "uint256",
          "name": "totalUsdValue",
          "type": "uint256"
        },
        {
          "internalType": "uint256",
          "name": "totalFlareEquivalent",
          "type": "uint256"
        }
      ],
      "stateMutability": "nonpayable",
      "type": "function"
    },
    {
      "inputs": [
        {
          "internalType": "uint256",
          "name": "vaultId",
          "type": "uint256"
        }
      ],
      "name": "checkCrossChainPriceTrigger",
      "outputs": [
        {
          "internalType": "bool",
          "name": "shouldRelease",
          "type": "bool"
        },
        {
          "internalType": "uint256",
          "name": "currentPrice",
          "type": "uint256"
        }
      ],
      "stateMutability": "view",
      "type": "function"
    },
    {
      "inputs": [
        {
          "internalType": "uint256",
          "name": "vaultId",
          "type": "uint256"
        }
      ],
      "name": "contributeFlare",
      "outputs": [],
      "stateMutability": "payable",
      "type": "function"
    },
    {
      "inputs": [
        {
          "internalType": "uint256",
          "name": "xrpAmount",
          "type": "uint256"
        },
        {
          "internalType": "string",
          "name": "xrpTxHash",
          "type": "string"
        }
      ],
      "name": "convertXRPToFlare",
      "outputs": [
        {
          "internalType": "uint256",
          "name": "usdValue",
          "type": "uint256"
        },
        {
          "internalType": "uint256",
          "name": "flareEquivalent",
          "type": "uint256"
        }
      ],
      "stateMutability": "payable",
      "type": "function"
    },
    {
      "inputs": [
        {
          "internalType": "string",
          "name": "destination",
          "type": "string"
        },
        {
          "internalType": "uint256",
          "name": "targetAmountFlare",
          "type": "uint256"
        },
        {
          "internalType": "uint256",
          "name": "targetAmountXRP",
          "type": "uint256"
        },
        {
          "internalType": "uint256",
          "name": "deadline",
          "type": "uint256"
        },
        {
          "internalType": "address",
          "name": "xrplAddress",
          "type": "address"
        },
        {
          "internalType": "bool",
          "name": "enableFAssets",
          "type": "bool"
        },
        {
          "internalType": "bytes21",
          "name": "priceFeedId",
          "type": "bytes21"
        },
        {
          "internalType": "uint256",
          "name": "triggerPrice",
          "type": "uint256"
        },
        {
          "internalType": "bool",
          "name": "isLowerBound",
          "type": "bool"
        }
      ],
      "name": "createCrossChainVault",
      "outputs": [
        {
          "internalType": "uint256",
          "name": "vaultId",
          "type": "uint256"
        }
      ],
      "stateMutability": "payable",
      "type": "function"
    },
    {
      "inputs": [
        {
          "internalType": "uint256",
          "name": "vaultId",
          "type": "uint256"
        },
        {
          "internalType": "string",
          "name": "action",
          "type": "string"
        }
      ],
      "name": "executeSmartAccountAction",
      "outputs": [],
      "stateMutability": "nonpayable",
      "type": "function"
    },
    {
      "inputs": [],
      "name": "fdcVerification",
      "outputs": [
        {
          "internalType": "contract IFdcVerification",
          "name": "",
          "type": "address"
        }
      ],
      "stateMutability": "view",
      "type": "function"
    },
    {
      "inputs": [],
      "name": "ftsoConsumer",
      "outputs": [
        {
          "internalType": "contract IFtsoV2FeedConsumer",
          "name": "",
          "type": "address"
        }
      ],
      "stateMutability": "view",
      "type": "function"
    },
    {
      "inputs": [],
      "name": "fxrpAssetManager",
      "outputs": [
        {
          "internalType": "contract IAssetManager",
          "name": "",
          "type": "address"
        }
      ],
      "stateMutability": "view",
      "type": "function"
    },
    {
      "inputs": [],
      "name": "fxrpToken",
      "outputs": [
        {
          "internalType": "address",
          "name": "",
          "type": "address"
        }
      ],
      "stateMutability": "view",
      "type": "function"
    },
    {
      "inputs": [
        {
          "internalType": "uint256",
          "name": "vaultId",
          "type": "uint256"
        }
      ],
      "name": "getCrossChainVaultInfo",
      "outputs": [
        {
          "internalType": "string",
          "name": "destination",
          "type": "string"
        },
        {
          "internalType": "uint256",
          "name": "targetAmountFlare",
          "type": "uint256"
        },
        {
          "internalType": "uint256",
          "name": "targetAmountXRP",
          "type": "uint256"
        },
        {
          "internalType": "uint256",
          "name": "currentAmountFlare",
          "type": "uint256"
        },
        {
          "internalType": "uint256",
          "name": "currentAmountFXRP",
          "type": "uint256"
        },
        {
          "internalType": "uint256",
          "name": "deadline",
          "type": "uint256"
        },
        {
          "internalType": "address",
          "name": "creator",
          "type": "address"
        },
        {
          "internalType": "bool",
          "name": "isActive",
          "type": "bool"
        },
        {
          "internalType": "bool",
          "name": "fundsReleased",
          "type": "bool"
        },
        {
          "internalType": "uint256",
          "name": "memberCount",
          "type": "uint256"
        },
        {
          "internalType": "bool",
          "name": "fAssetsEnabled",
          "type": "bool"
        },
        {
          "internalType": "bool",
          "name": "smartAccountEnabled",
          "type": "bool"
        }
      ],
      "stateMutability": "view",
      "type": "function"
    },
    {
      "inputs": [
        {
          "internalType": "uint256",
          "name": "vaultId",
          "type": "uint256"
        }
      ],
      "name": "getFAssetsBalance",
      "outputs": [
        {
          "internalType": "uint256",
          "name": "fxrpAmount",
          "type": "uint256"
        },
        {
          "internalType": "uint256",
          "name": "lots",
          "type": "uint256"
        }
      ],
      "stateMutability": "view",
      "type": "function"
    },
    {
      "inputs": [
        {
          "internalType": "uint256",
          "name": "vaultId",
          "type": "uint256"
        },
        {
          "internalType": "address",
          "name": "member",
          "type": "address"
        }
      ],
      "name": "getMemberXRPLAddress",
      "outputs": [
        {
          "internalType": "address",
          "name": "",
          "type": "address"
        }
      ],
      "stateMutability": "view",
      "type": "function"
    },
    {
      "inputs": [
        {
          "internalType": "uint256",
          "name": "vaultId",
          "type": "uint256"
        }
      ],
      "name": "getXRPLTransactions",
      "outputs": [
        {
          "internalType": "bytes32[]",
          "name": "",
          "type": "bytes32[]"
        }
      ],
      "stateMutability": "view",
      "type": "function"
    },
    {
      "inputs": [],
      "name": "getXRPToFlareRate",
      "outputs": [
        {
          "internalType": "uint256",
          "name": "rate",
          "type": "uint256"
        }
      ],
      "stateMutability": "pure",
      "type": "function"
    },
    {
      "inputs": [
        {
          "internalType": "uint256",
          "name": "vaultId",
          "type": "uint256"
        },
        {
          "internalType": "address",
          "name": "xrplAddress",
          "type": "address"
        }
      ],
      "name": "joinCrossChainVault",
      "outputs": [],
      "stateMutability": "payable",
      "type": "function"
    },
    {
      "inputs": [
        {
          "internalType": "uint256",
          "name": "vaultId",
          "type": "uint256"
        },
        {
          "internalType": "uint256",
          "name": "lots",
          "type": "uint256"
        }
      ],
      "name": "mintFAssets",
      "outputs": [],
      "stateMutability": "nonpayable",
      "type": "function"
    },
    {
      "inputs": [],
      "name": "nextVaultId",
      "outputs": [
        {
          "internalType": "uint256",
          "name": "",
          "type": "uint256"
        }
      ],
      "stateMutability": "view",
      "type": "function"
    },
    {
      "inputs": [
        {
          "internalType": "uint256",
          "name": "vaultId",
          "type": "uint256"
        },
        {
          "internalType": "uint256",
          "name": "lots",
          "type": "uint256"
        },
        {
          "internalType": "string",
          "name": "xrplDestination",
          "type": "string"
        }
      ],
      "name": "redeemFAssets",
      "outputs": [],
      "stateMutability": "nonpayable",
      "type": "function"
    },
    {
      "inputs": [
        {
          "internalType": "uint256",
          "name": "vaultId",
          "type": "uint256"
        },
        {
          "internalType": "string",
          "name": "reason",
          "type": "string"
        }
      ],
      "name": "releaseCrossChainFunds",
      "outputs": [],
      "stateMutability": "nonpayable",
      "type": "function"
    },
    {
      "inputs": [
        {
          "internalType": "uint256",
          "name": "vaultId",
          "type": "uint256"
        },
        {
          "internalType": "address",
          "name": "smartAccount",
          "type": "address"
        }
      ],
      "name": "setupSmartAccount",
      "outputs": [],
      "stateMutability": "nonpayable",
      "type": "function"
    },
    {
      "inputs": [
        {
          "internalType": "uint256",
          "name": "",
          "type": "uint256"
        }
      ],
      "name": "vaults",
      "outputs": [
        {
          "internalType": "string",
          "name": "destination",
          "type": "string"
        },
        {
          "internalType": "uint256",
          "name": "targetAmountFlare",
          "type": "uint256"
        },
        {
          "internalType": "uint256",
          "name": "targetAmountXRP",
          "type": "uint256"
        },
        {
          "internalType": "uint256",
          "name": "currentAmountFlare",
          "type": "uint256"
        },
        {
          "internalType": "uint256",
          "name": "currentAmountFXRP",
          "type": "uint256"
        },
        {
          "internalType": "uint256",
          "name": "deadline",
          "type": "uint256"
        },
        {
          "internalType": "address",
          "name": "creator",
          "type": "address"
        },
        {
          "internalType": "bool",
          "name": "isActive",
          "type": "bool"
        },
        {
          "internalType": "bool",
          "name": "fundsReleased",
          "type": "bool"
        },
        {
          "internalType": "bool",
          "name": "fAssetsEnabled",
          "type": "bool"
        },
        {
          "internalType": "uint256",
          "name": "fxrpLots",
          "type": "uint256"
        },
        {
          "internalType": "address",
          "name": "smartAccount",
          "type": "address"
        },
        {
          "internalType": "bool",
          "name": "smartAccountEnabled",
          "type": "bool"
        },
        {
          "internalType": "bytes21",
          "name": "priceFeedId",
          "type": "bytes21"
        },
        {
          "internalType": "uint256",
          "name": "triggerPrice",
          "type": "uint256"
        },
        {
          "internalType": "bool",
          "name": "isLowerBound",
          "type": "bool"
        },
        {
          "internalType": "bool",
          "name": "priceTriggersEnabled",
          "type": "bool"
        },
        {
          "internalType": "uint256",
          "name": "requiredApprovals",
          "type": "uint256"
        },
        {
          "internalType": "uint256",
          "name": "currentApprovals",
          "type": "uint256"
        }
      ],
      "stateMutability": "view",
      "type": "function"
    },
    {
      "inputs": [
        {
          "internalType": "uint256",
          "name": "vaultId",
          "type": "uint256"
        },
        {
          "internalType": "bytes32",
          "name": "xrplTxHash",
          "type": "bytes32"
        },
        {
          "internalType": "uint256",
          "name": "amount",
          "type": "uint256"
        },
        {
          "internalType": "bytes32",
          "name": "paymentReference",
          "type": "bytes32"
        }
      ],
      "name": "verifyXRPLContribution",
      "outputs": [],
      "stateMutability": "nonpayable",
      "type": "function"
    },
    {
      "inputs": [],
      "name": "xrplVerification",
      "outputs": [
        {
          "internalType": "contract IXRPLPaymentVerification",
          "name": "",
          "type": "address"
        }
      ],
      "stateMutability": "view",
      "type": "function"
    }
  ],
  "bytecode": "0x60803460b057601f61258338819003918201601f19168301916001600160401b0383118484101760b55780849260609460405283398101031260b05760428160cb565b906057604060516020840160cb565b920160cb565b600160005560018060a01b0380928160018060a01b03199516856001541617600155168360025416176002551681600354161760035560016005558060075416600755600654166006556040516124a490816100df8239f35b600080fd5b634e487b7160e01b600052604160045260246000fd5b51906001600160a01b038216820360b05756fe608080604052600436101561001357600080fd5b60003560e01c9081630182965814611bea57508063044e7d0414611bbe57806310cc3c6114611a6757806312ac176314611a49578063230534cc146119fe57806339249719146119d55780633ad6d516146119ac5780633fa16e46146117fd578063503fc7f2146117d45780635b77dfeb146117ae5780635cf153f4146112bb5780636e131a7c146112925780637782ab4f146110405780637ebcbde01461100857806385f142e814610fdf5780638c64ea4a14610e9657806394d8572a14610e705780639a6b715014610cfe578063a352f1fd14610bce578063a3a91f1614610a70578063a454872c146109c7578063c0552c16146107c7578063c4144eee146107a4578063c727dd8314610599578063d783228b146104a6578063e6f70daa146102265763f0ca83311461014857600080fd5b346102215760203660031901126102215760043560005260046020526101c86040600020600181015460ff600283015492816003820154600483015490600584015460018060a01b0360068601541690600d860154936007870154936101b2600f89015498611d25565b9a6040519c8d9c8d610180908181520190611dca565b9a60208d015260408c015260608b015260808a015260a089015260c0880152828216151560e0880152828260081c16151561010088015261012087015260101c16151561014085015260a01c1615156101608301520390f35b600080fd5b346102215760403660031901126102215767ffffffffffffffff600435818111610221573660238201121561022157806004013560249261026682611e0a565b926102746040519485611c29565b828452602092858486019160051b830101913683116102215786859101915b8383106104965750505050833581811161022157366023820112156102215780600401356102c081611e0a565b926102ce6040519485611c29565b818452868585019260051b8401019236841161022157878101925b848410610470575050505050600080918451815103610433578451156103ef579190946000925b85518410156103e05761035a6040610328868961202d565b51610333878561202d565b5190825193849283926310cc3c6160e01b8452600484015284888401526044830190611dca565b03816000305af19788156103d457600091600099610397575b5060409861038660019361038c93611f67565b95611f67565b940193929650610310565b985090506040883d6040116103cc575b816103b460409383611c29565b8101031261022157875197860151979061038c610373565b3d91506103a7565b6040513d6000823e3d90fd5b60408784878351928352820152f35b60405162461bcd60e51b8152600481018590526018818801527f4e6f207472616e73616374696f6e732070726f766964656400000000000000006044820152606490fd5b60405162461bcd60e51b81526004810185905260168188015275082e4e4c2f2e640d8cadccee8d040dad2e6dac2e8c6d60531b6044820152606490fd5b833583811161022157879161048b83928c3691870101611c4b565b8152019301926102e9565b8235815291810191859101610293565b34610221576040366003190112610221576004356104c2611cd5565b816000526004602052600b604060002001336000526020526104eb60ff60406000205416611ea0565b60008281526004602052604090206001600160a01b0390911690811561055c57600f0180546001600160a81b0319168217600160a01b179055604080519182526020820181905260059082015264053657475760dc1b606082015260008051602061244f83398151915290608090a2005b60405162461bcd60e51b8152602060048201526015602482015274125b9d985b1a59081cdb585c9d081858d8dbdd5b9d605a1b6044820152606490fd5b6040366003190112610221576004356105b0611cd5565b816000526020600481526105ce60ff600d6040600020015416611ee1565b8260005260048152604060002091600b83013360005280835260ff6040600020541661076c5761060360058501544210611f23565b6001600160a01b038216610618811515611fa2565b60078501916106273384611fe5565b6106348460088801611fe5565b3360005284526040600020600160ff19825416179055600c850184526040600020906bffffffffffffffffffffffff60a01b8254161790555491604b830292808404604b1490151715610756577fac5a2ef5ddc5f865841ed8a5b603c1c3568ac15657e78bf791391a850384d9fe9360646106e1940460148201908082551561074c575b50346106e6575b5050604080513381526001600160a01b03909216602083015290918291820190565b0390a2005b600391336000526009820190526040600020610703348254611f67565b905501610711348254611f67565b90556040805133815234602082015285917f45b79b2769da93a5a1fccc6bc90342186f1702c3bb505bd7b667c8bfba83435491a284806106bf565b60019055866106b8565b634e487b7160e01b600052601160045260246000fd5b60405162461bcd60e51b815260048101849052601060248201526f20b63932b0b23c90309036b2b6b132b960811b6044820152606490fd5b3461022157600036600319011261022157602060405167bf347fe41eb71c718152f35b34610221576107d536611ca2565b8160005260046020526107f260ff600d6040600020015416611ee1565b6002600054146109b5576002600055816000526004602052604060002090600d820191825460ff8160081c1661097757600060ff601284015460081c16610967575b60168301546014840154111561095f575b6003830190815460018501541115600485019485541590811591610947575b82610929575b5050610921575b156108dc577fe40b1063be2d6200e1fc9aa567bd1f6f90a997d0fe3a79df94fb850b5b39727d946101006108d29361ffff19161790556108b0866122ec565b5491549260405193849384526020840152606060408401526060830190611dca565b0390a26001600055005b60405162461bcd60e51b815260206004820152601a60248201527f52656c6561736520636f6e646974696f6e73206e6f74206d65740000000000006044820152606490fd5b506001610871565b60020154159150811561093f575b50888061086a565b905088610937565b905061095289612275565b6002820154111590610864565b506001610845565b5061097185611e22565b50610834565b60405162461bcd60e51b8152602060048201526016602482015275119d5b991cc8185b1c9958591e481c995b19585cd95960521b6044820152606490fd5b604051633ee5aeb560e01b8152600490fd5b34610221576020806003193601126102215760043560005260048152601360406000200160405190818382549182815201908192600052846000209060005b86828210610a5c578686610a1c82880383611c29565b604051928392818401908285525180915260408401929160005b828110610a4557505050500390f35b835185528695509381019392810192600101610a36565b835485529093019260019283019201610a06565b602080600319360112610221576004358060005260048252600b604060002001336000528252610aa760ff60406000205416611ea0565b8060005260048252610ac360ff600d6040600020015416611ee1565b3415610b9657610b73918160005260048152610ae86005604060002001544210611f23565b8160005260048152604060002090336000526009820190526040600020610b10348254611f67565b905560ff600d6003830192610b26348554611f67565b938490556040805133815234602082015286917f45b79b2769da93a5a1fccc6bc90342186f1702c3bb505bd7b667c8bfba83435491a2015460101c169081610b83575b50610b7557612041565b005b610b7e816121da565b612041565b670de0b6b3a76400009150101583610b69565b60405162461bcd60e51b815260048101839052601060248201526f4d7573742073656e6420746f6b656e7360801b6044820152606490fd5b34610221576040366003190112610221576004356024358160005260209060048252600b604060002001336000528252610c0f60ff60406000205416611ea0565b8260005260048252610c2b60ff600d6040600020015416611ee1565b826000526004825260406000209060ff600d83015460101c1615610cae576103e890818102918183041481151715610756577fdd560f90c4153ca14faad0a4732a7400714caf77458afc3892044843d378f62f93600e84600460409601610c93868254611f67565b905501610ca1838254611f67565b90558351928352820152a2005b60405162461bcd60e51b815260048101849052602260248201527f46417373657473206e6f7420656e61626c656420666f722074686973207661756044820152611b1d60f21b6064820152608490fd5b346102215760603660031901126102215760043560243560443567ffffffffffffffff811161022157610d35903690600401611c4b565b8260005260209060048252600b604060002001336000528252610d5f60ff60406000205416611ea0565b836000526004825260406000209060ff600d83015460101c1615610e3557600e820190815491858310610df7576103e893848702948786041487151715610756577fa39ab4da145c8906a74111a59513ac43177cf63c86a8638ca57c45f9073bec0b966106e1946004610ddf9301610dd8888254612020565b9055612020565b90556040805194859485528401526040830190611dca565b60405162461bcd60e51b8152600481018690526016602482015275496e73756666696369656e742046585250206c6f747360501b6044820152606490fd5b60405162461bcd60e51b815260048101849052601360248201527211905cdcd95d1cc81b9bdd08195b98589b1959606a1b6044820152606490fd5b3461022157600036600319011261022157604051665155120bd554d160c21b8152602090f35b346102215760203660031901126102215760043560005260046020526040600020610ec081611d25565b90600181015460028201549160038101549060048101546005820154600160a01b60019003600684015416600d840154600e850154600f86015491601087015460581b9360118801549560128901549760148a015499601601549a6040519e8f9e8f916102608084528301610f3491611dca565b9e602083015260408201526060015260808d015260a08c015260c08b015260ff8116151560e08b01528060081c60ff1615156101008b015260101c60ff1615156101208a0152610140890152600160a01b60019003811661016089015260a01c60ff1615156101808801526001600160581b0319166101a08701526101c086015260ff811615156101e086015260081c60ff1615156102008501526102208401526102408301520390f35b34610221576000366003190112610221576003546040516001600160a01b039091168152602090f35b34610221576020366003190112610221576004356000526004602052604080600020600e600482015491015482519182526020820152f35b346102215761104e36611ca2565b8160005260206004815260018060a01b039182600f6040600020015416330361125857836000526004825260406000209281517ff4c208a167ab75a6661e860105174f4451c43e691d80c61030d220a52b8174d584840191822068726562616c616e636560b81b866040516110c281611c0d565b600981520152036111e5575084600052600483526040600020602460608360015416604051928380926349f4fc0360e11b8252665614940bd554d160c21b60048301525afa9081156103d45760009161117c575b5060008051602061244f8339815191529582600f9260116106e19695015410908161116a575b5061115c575b015416916040805194859485528401526040830190611dca565b611165886121da565b611142565b60ff9150600d015460101c168961113c565b90506060929192813d6060116111dd575b8161119a60609383611c29565b81010312610221578051908581015167ffffffffffffffff811603610221576040015160ff8116036102215790919060008051602061244f833981519152611116565b3d915061118d565b90600f60008051602061244f833981519152957f8e6ad836a3b6e6a7c7d7c3b13f01cbb2ac25971dc8bacd25de26e4c5d2ec7b706106e1948651902071636f6e766572745f746f5f6661737365747360701b8860405161124481611c0d565b6012815201520361114257611165886121da565b60405162461bcd60e51b815260048101839052601260248201527113db9b1e481cdb585c9d081858d8dbdd5b9d60721b6044820152606490fd5b34610221576000366003190112610221576006546040516001600160a01b039091168152602090f35b6101203660031901126102215760043567ffffffffffffffff8111610221576112e8903690600401611c4b565b6084356001600160a01b03811690036102215760a43580151581036102215760c4356affffffffffffffffffffff19811690036102215761010435801515810361022157602435158015906117a3575b1561175e574260643511156117195761135d6084356001600160a01b03161515611fa2565b6005549160001983146107565760018301600555826000526004602052604060002091845167ffffffffffffffff81116117035761139b8454611ceb565b601f81116116bf575b50918493916020969387601f821160011461162e576114ec9492827f9376fbc8a3256ef7e3d46fbc814084da897437f53f0ba86ee0089df58497400b9795938993600091611623575b508160011b916000199060031b1c19161784555b60243560018501556044356002850155606435600585015560068401926bffffffffffffffffffffffff60a01b9333858254161790556001600d86019162ff00008354918360148a0155151560101b169062ff00ff1916171790556001600160581b031960c43516151580611618575b61158f575b50506114853360078401611fe5565b61149460843560088401611fe5565b336000908152600b830189526040808220805460ff19166001179055600c84018a52902080549091166084356001600160a01b03161790553461153c575b506040519182913383526060888401526060830190611dca565b60243560408301520390a2604080513381526084356001600160a01b0316602082015282917fac5a2ef5ddc5f865841ed8a5b603c1c3568ac15657e78bf791391a850384d9fe91a2604051908152f35b60098101875260406000819020349081905560039092018290558051338152602081019290925285917f45b79b2769da93a5a1fccc6bc90342186f1702c3bb505bd7b667c8bfba8343549190a2866114d2565b60607ffc98c02990ff7f9534a2b8df368cef19beb8387bc3a446b513f749160fdef480916010860160c43560581c6001600160581b0360a81b82541617905560e435601187015560128601610100815460ff841515169061ffff191617179055604051906001600160581b031960c43516825260e4358d83015215156040820152a28589611476565b5060e4351515611471565b90508601518c6113ed565b84600052886000209060005b601f19841681106116a557509260018389936114ec98967f9376fbc8a3256ef7e3d46fbc814084da897437f53f0ba86ee0089df58497400b9a9896601f1981161061168c575b5050811b018455611401565b88015160001960f88460031b161c191690558c80611680565b818801518355899850600190920191908a01908a0161163a565b846000526020600020601f830160051c8101602084106116fc575b601f830160051c820181106116f05750506113a4565b600081556001016116da565b50806116da565b634e487b7160e01b600052604160045260246000fd5b60405162461bcd60e51b815260206004820152601a60248201527f446561646c696e65206d75737420626520696e206675747572650000000000006044820152606490fd5b60405162461bcd60e51b815260206004820152601760248201527f4d75737420686176652074617267657420616d6f756e740000000000000000006044820152606490fd5b506044351515611338565b3461022157600036600319011261022157604051665614940bd554d160c21b8152602090f35b34610221576000366003190112610221576007546040516001600160a01b039091168152602090f35b34610221576080366003190112610221576004356024359060443581600052602060048152600b60406000200133600052815261184160ff60406000205416611ea0565b826000526004815261185d60ff600d6040600020015416611ee1565b8260005260048152604060002061187960058201544210611f23565b336000908152600c8201835260409020546001600160a01b0316156119675782156119315760139033600052600a8101835260406000206118bb858254611f67565b90550190815490600160401b82101561170357610b73958594611907847fd02174ab800adc293a1dabeb0dc9511da523655d1ce771259d0297671c5d5b7d966001606097018155611f74565b81549060031b9084821b91600019901b1916179055604051923384528301526040820152a2612041565b60405162461bcd60e51b815260048101839052600e60248201526d125b9d985b1a5908185b5bdd5b9d60921b6044820152606490fd5b60405162461bcd60e51b815260048101839052601b60248201527f4d656d626572205852504c2061646472657373206e6f742073657400000000006044820152606490fd5b34610221576000366003190112610221576002546040516001600160a01b039091168152602090f35b34610221576000366003190112610221576001546040516001600160a01b039091168152602090f35b34610221576040366003190112610221576020611a19611cd5565b60043560005260048252600c60406000200160018060a01b03809216600052825260406000205416604051908152f35b34610221576000366003190112610221576020600554604051908152f35b611a7036611ca2565b908015611b6f57620f42408104916303b20b809182840293808504841490151715610756576305f5e1008094049284840290848204861485151715610756576244aa2080920495670de0b6b3a7640000968781029781890414901517156107565760409604937fe4aa91373c64d133d1c8f72d219b0fbdb3b940aefa67b7877d727f28c5220079611b11885192868452606060208501526060840190611dca565b9143898201528033930390a285519283528460208401528386840152606083015260808201524260a08201527f6930bfb5db1c1ae8dd4840402707b4c1f0ebec3c18c3b745edf20032b88a081b60c03392a282519182526020820152f35b60405162461bcd60e51b815260206004820152602160248201527f58525020616d6f756e74206d7573742062652067726561746572207468616e206044820152600360fc1b6064820152608490fd5b34610221576020366003190112610221576040611bdc600435611e22565b825191151582526020820152f35b3461022157600036600319011261022157665193148bd554d160c21b8152602090f35b6040810190811067ffffffffffffffff82111761170357604052565b90601f8019910116810190811067ffffffffffffffff82111761170357604052565b81601f820112156102215780359067ffffffffffffffff82116117035760405192611c80601f8401601f191660200185611c29565b8284526020838301011161022157816000926020809301838601378301015290565b90604060031983011261022157600435916024359067ffffffffffffffff821161022157611cd291600401611c4b565b90565b602435906001600160a01b038216820361022157565b90600182811c92168015611d1b575b6020831014611d0557565b634e487b7160e01b600052602260045260246000fd5b91607f1691611cfa565b90604051918260008254611d3881611ceb565b90818452602094600191600181169081600014611da85750600114611d69575b505050611d6792500383611c29565b565b600090815285812095935091905b818310611d90575050611d679350820101388080611d58565b85548884018501529485019487945091830191611d77565b92505050611d6794925060ff191682840152151560051b820101388080611d58565b919082519283825260005b848110611df6575050826000602080949584010152601f8019910116010190565b602081830181015184830182015201611dd5565b67ffffffffffffffff81116117035760051b60200190565b6000526004602052604060002060128101549060ff8260081c16158015611e91575b8015611e80575b611e765760119060ff670853a0d2313c00009316600014611e6e57015481111591565b015481101591565b5050600090600090565b5060ff600d82015460081c16611e4b565b5060ff600d8201541615611e44565b15611ea757565b60405162461bcd60e51b81526020600482015260126024820152712737ba1030903b30bab63a1036b2b6b132b960711b6044820152606490fd5b15611ee857565b60405162461bcd60e51b81526020600482015260136024820152725661756c74206973206e6f742061637469766560681b6044820152606490fd5b15611f2a57565b60405162461bcd60e51b815260206004820152601560248201527415985d5b1d08191958591b1a5b99481c185cdcd959605a1b6044820152606490fd5b9190820180921161075657565b8054821015611f8c5760005260206000200190600090565b634e487b7160e01b600052603260045260246000fd5b15611fa957565b60405162461bcd60e51b8152602060048201526014602482015273496e76616c6964205852504c206164647265737360601b6044820152606490fd5b8054600160401b8110156117035761200291600182018155611f74565b60018060a09493941b038084549260031b9316831b921b1916179055565b9190820391821161075657565b8051821015611f8c5760209160051b010190565b80600052600460205260406000206003810180546001830154111561206584612275565b6002840154826121ba575b505061207b57505050565b601282015460081c60ff16156121335761209483611e22565b5061209e57505050565b81600460c092600d7fe40b1063be2d6200e1fc9aa567bd1f6f90a997d0fe3a79df94fb850b5b39727d950161010061ffff198254161790556120df866122ec565b54910154604051918252602082015260606040820152602560608201527f4175746f2d72656c656173653a2074617267657473202b20707269636520747260808201526434b3b3b2b960d91b60a0820152a2565b81600460a092600d7fe40b1063be2d6200e1fc9aa567bd1f6f90a997d0fe3a79df94fb850b5b39727d950161010061ffff19825416179055612174866122ec565b54910154604051918252602082015260606040820152601d60608201527f4175746f2d72656c656173653a207461726765747320726561636865640000006080820152a2565b801592509082156121cf575b50503880612070565b1015905038806121c6565b80600052600460205260406000206003810154670de0b6b3a76400009081811015612206575b50505050565b04906103e8808302908382041483151715610756577fdd560f90c4153ca14faad0a4732a7400714caf77458afc3892044843d378f62f92600e83600460409501612251858254611f67565b90550161225f828254611f67565b905582519182526020820152a238808080612200565b600090815260206004602052604091604081208193826007830194600a86549401905b8486106122a9575050505050505090565b90919293949597966122de6001916122c1898c611f74565b848060a01b0391549060031b1c1686528484528686205490611f67565b979896019493929190612298565b90600091825260206004815260409060408420928490600785019060098601925b825481101561238a57876123218285611f74565b905460039190911b1c6001600160a01b0316808252858752878220805491908215908115612357575b505050505060010161230d565b8490558392839283928390612381575bf11561237757873880808061234a565b85513d89823e3d90fd5b506108fc612367565b509594935050506004820154918215158061243a575b6123aa5750505050565b6006805491015460405163a9059cbb60e01b81526001600160a01b03918216600482015260248101949094528291849160449183918891165af1801561242f576123f5575b80612200565b81813d8311612428575b6124098183611c29565b810103126124245751801515036124215780806123ef565b80fd5b5080fd5b503d6123ff565b6040513d85823e3d90fd5b506006546001600160a01b031615156123a056fe31ba9839f7632a824874cadf2dc713c9bb4460f149a3cf3df3e5b61cf49f9c9ba264697066735822122093442107e233f7fd94c859f7455fb1a7b98fee5eb7e93c442906193eae7d0e2064736f6c63430008190033",
  "linkReferences": {},
  "deployedLinkReferences": {}
}